:100000000C943A000C9457000C9457000C94570031
:100010000C9493000C9457000C9457000C945700C8
:100020000C9457000C9457000C9457000C947800D3
:100030000C9457000C9457000C9453010C945700E7
:100040000C9457000C9457000C9435020C945700F4
:100050000C9457000C9457000C9457000C945700C4
:100060000C9457000C9457006364696E6F7073753D
:1000700078585B0011241FBECFEFD8E0DEBFCDBFA4
:1000800011E0A0E0B1E0E2ECF4E102C005900D92D5
:10009000AA32B107D9F721E0AAE2B1E001C01D926E
:1000A000A136B207E1F70E9483020C945F0A0C9418
:1000B0000000E1E8F0E0208128602083AFE6B0E0B6
:1000C0002C9122602C9390938900809388008081EA
:1000D00082608083089595B5986095BDEEE6F0E066
:1000E00090819260908387BD85B5846085BD0895B9
:1000F0001F920F920FB60F9211248F939F938091AE
:100100003E01813049F4809155019091560101964C
:1001100090935601809355019F918F910F900FBE40
:100120000F901F9018951F920F920FB60F921124E7
:100130002F933F934F935F936F937F938F939F93EF
:10014000AF93BF93EF93FF9386B180935901809152
:100150005901827080935801809159018072809377
:1001600032018091590184FD04C081E080933E01F9
:1001700009C08091590183FD05C010923E0181E0C4
:10018000809336018091350181110DC08091580115
:10019000882311F081E02EC080913201882309F478
:1001A0005CC082E043C080913501813069F4809168
:1001B0003201882311F083E01DC080915801811124
:1001C0004CC01092400134C080913501823069F4F6
:1001D00080913201811103C0109240010DC08091C5
:1001E00058018823D1F183E021C080915801811109
:1001F00018C082E080934001809153019091540196
:1002000001969093540180935301809153019091F2
:1002100054018436910509F510925401109253014E
:100220001CC080913201811118C081E0809340018F
:100230008091530190915401892B31F483E690E031
:1002400090935401809353018091530190915401F4
:1002500001979093540180935301909140018091B4
:100260003501981779F0609153017091540184E63B
:1002700090E00E94030981E080933F01809140015A
:1002800080933501FF91EF91BF91AF919F918F9135
:100290007F916F915F914F913F912F910F900FBE82
:1002A0000F901F9018951F920F920FB60F92112466
:1002B0002F938F939F93809152018823D1F085B122
:1002C00090E1892785B980913C0190913D0101968B
:1002D00090933D0180933C0180913C0190913D01C0
:1002E000853F914034F01092520110923D011092DE
:1002F0003C019F918F912F910F900FBE0F901F90F7
:1003000018959BB19F709BB99BB1807F892B8BB94E
:10031000299A299A29980895CF93C82F28980E943E
:1003200081018C2F8295807F0E9481018FE39FE164
:100330000197F1F700C00000CF910895811102C02C
:1003400080E801C080EC860F0C948C018AB1806F2C
:100350008AB984B1836084B98FE59AEE0197F1F789
:1003600000C0000083E00E9481018FE19EE40197BC
:10037000F1F700C0000083E00E9481018FED91E061
:100380000197F1F700C0000083E00E94810183E043
:100390000E9481018FE39FE10197F1F700C0000007
:1003A00088E20E948C018FE00C948C01CF93C82FBF
:1003B000289A0E9481018C2F8295807F0E94810162
:1003C0008FE39FE10197F1F700C00000CF910895FE
:1003D000CF93DF93EC018991882319F00E94D60115
:1003E000FACFDF91CF9108959093C5008093C40018
:1003F00086E08093C200E1ECF0E080818861808338
:10040000539A5B9808959091C00095FFFCCF80931C
:10041000C6000895EF92FF920F931F93CF93DF933F
:100420001F92CDB7DEB7182F80E499830E94030294
:10043000E12E9981F92E00E010E0F70181917F0112
:1004400090ED980F9A3010F40E9403020F5F1F4F37
:100450000530110591F784E20F90DF91CF911F9144
:100460000F91FF90EF900C9403021F920F920FB622
:100470000F9211242F938F939F93EF93FF932091CB
:10048000C600203431F481E090E0909331018093F4
:10049000300180ED820F8A30B0F48091300190916C
:1004A0003101019781F4E0912C01F0912D01E45A82
:1004B000FE4F208380912C0190912D010196909305
:1004C0002D0180932C012432A1F4E0912C01F091B4
:1004D0002D01E45AFE4F87E291E0808310922D01B6
:1004E00010922C01109231011092300181E0809322
:1004F0005B01FF91EF919F918F912F910F900FBE14
:100500000F901F901895CF93DF93CDB7DEB761970B
:100510000FB6F894DEBF0FBECDBF0E94A60184B116
:10052000886184B92B9887B1877E87B988B1877E27
:1005300088B988B1826288B910925601109255012B
:1005400010923E011092360110923F011092570115
:1005500010925B0184E690E00E94FB0890E090938B
:1005600054018093530180915301909154018091E3
:100570005301909154018536910530F084E190E06B
:10058000909354018093530180ED97E00E945900AD
:100590008AEF90E00E946B0087E690E00E94F401F1
:1005A0008091680082608093680080916C008A630B
:1005B00080936C008091C10080688093C10081E0CD
:1005C0000E948C0186B180935901809159018270FB
:1005D00080935801809159018072809332018091FB
:1005E0003201811107C080915801811103C010921E
:1005F000350117C080913201811106C080915801E8
:10060000882311F081E00BC080913201882331F002
:1006100080915801811102C082E001C083E0809383
:100620003501809135018093400178942AE0E22ED3
:10063000F12C32E0232E31E0332E41E4442E41E010
:10064000542E53E1A52E51E0B52E67E3862E61E0CE
:10065000962E8E010F5F1F4F81E1782E99E1C92EF2
:1006600091E0D92E8091590184FD02C02B9A04C0DB
:100670008091590183FF2B986090360141E064120C
:1006800078C081E00E948C01609155017091560103
:1006900080E197E70E94170470932B0160932A0171
:1006A00060E080E00E949E0180912A0190912B01E0
:1006B000E0912A01F0912B012091550130915601D2
:1006C000B7010E9417049F938F93CF01B7010E9437
:1006D00017047F936F933F932F933F922F921F9214
:1006E0007F925F924F920E942B0481E491E00E94DE
:1006F000E80180912A0190912B019F938F93BF92E3
:10070000AF921F9257E05F939F928F920E942B04AB
:1007100087E391E00E940A0260E081E00E949E016E
:1007200080915301909154019F938F93DF92CF92C8
:100730001F927F921F930F930E942B04C8010E9467
:10074000E80120912A0130912B0180915301909171
:1007500054010FB6F894DEBF0FBECDBF281739077E
:1007600010F06092520110925601109255011092B1
:10077000360180913F018130D9F410923F0160E051
:100780000E949E0180915301909154019F938F93F9
:10079000DF92CF921F927F921F930F930E942B04A0
:1007A000C8010E94E8010FB6F894DEBF0FBECDBFAE
:1007B00080915B01813009F055CF10925B016AE0B6
:1007C0000E949E0183E391E09F938F938EE191E0DD
:1007D0009F938F938CE591E09F938F930E945B048E
:1007E0008091330190913401209133013091340193
:1007F000B7010E9417049F938F93C901B7010E940C
:1008000017047F936F9381E291E09F938F931F92E0
:1008100086E08F931F930F930E942B04C8010E94C0
:10082000E8010FB6F894DEBF0FBECDBF15CFAA1BEF
:10083000BB1B51E107C0AA1FBB1FA617B70710F0CB
:10084000A61BB70B881F991F5A95A9F780959095FD
:10085000BC01CD010895AEE0B0E0E1E3F4E00C941A
:10086000360A0D891E898F89988D26E02C831A837C
:10087000098397FF02C080E090E801979E838D83F3
:10088000AE01455E5F4F698D7A8DCE0101960E9463
:1008900074044D815E8157FD0AC02F81388542174F
:1008A00053070CF49A01F801E20FF31F10822E9601
:1008B000E4E00C94520AAEE0B0E0E1E6F4E00C941F
:1008C000380A85E08C838B899C899A838983AE0161
:1008D000495E5F4F6D897E89CE0101960E94C407F3
:1008E0002E96E2E00C94540AACE0B0E0EAE7F4E0C3
:1008F0000C94280A7C016B018A01FC011782168284
:10090000838181FFBDC1CE0101964C01F701938126
:10091000F60193FD859193FF81916F01882309F47E
:10092000ABC1853239F493FD859193FF81916F01BD
:10093000853229F4B70190E00E947C09E7CF512C61
:10094000312C20E02032A0F48B3269F030F4803278
:1009500059F0833269F420612CC08D3239F0803334
:1009600039F4216026C02260246023C0286021C0A1
:1009700027FD27C030ED380F3A3078F426FF06C047
:10098000FAE05F9E300D1124532E13C08AE0389E8A
:10099000300D1124332E20620CC08E3221F426FD3E
:1009A0006BC1206406C08C3611F4206802C0883602
:1009B00041F4F60193FD859193FF81916F018111BF
:1009C000C1CF982F9F7D9554933028F40C5F1F4F13
:1009D000FFE3F9830DC0833631F0833771F083353F
:1009E00009F05BC022C0F801808189830E5F1F4F30
:1009F00044244394512C540115C03801F2E06F0E89
:100A0000711CF801A080B18026FF03C0652D70E045
:100A100002C06FEF7FEFC5012C870E9433092C01C4
:100A200083012C852F77222E17C03801F2E06F0E3C
:100A3000711CF801A080B18026FF03C0652D70E015
:100A400002C06FEF7FEFC5012C870E9428092C019F
:100A50002C852068222E830123FC1BC0832D90E06F
:100A600048165906B0F4B70180E290E00E947C0974
:100A70003A94F4CFF50127FC859127FE81915F011F
:100A8000B70190E00E947C0931103A94F1E04F1ACE
:100A900051084114510471F7E5C0843611F08936CC
:100AA00039F5F80127FF07C0608171818281938148
:100AB0000C5F1F4F08C060817181882777FD80958A
:100AC000982F0E5F1F4F2F76B22E97FF09C090957B
:100AD0008095709561957F4F8F4F9F4F2068B22E04
:100AE0002AE030E0A4010E94C709A82EA81844C03B
:100AF000853729F42F7EB22E2AE030E025C0F22F70
:100B0000F97FBF2E8F36C1F018F4883579F0B4C064
:100B1000803719F0883721F0AFC02F2F2061B22E17
:100B2000B4FE0DC08B2D8460B82E09C024FF0AC00E
:100B30009F2F9660B92E06C028E030E005C020E166
:100B400030E002C020E132E0F801B7FE07C060816A
:100B50007181828193810C5F1F4F06C0608171811A
:100B600080E090E00E5F1F4FA4010E94C709A82EED
:100B7000A818FB2DFF77BF2EB6FE0BC02B2D2E7FA6
:100B8000A51450F4B4FE0AC0B2FC08C02B2D2E7E72
:100B900005C07A2C2B2D03C07A2C01C0752C24FFA4
:100BA0000DC0FE01EA0DF11D8081803311F4297E14
:100BB00009C022FF06C07394739404C0822F867804
:100BC00009F0739423FD13C020FF06C05A2C731440
:100BD00018F4530C5718732C731468F4B70180E29F
:100BE00090E02C870E947C0973942C85F5CF7314B8
:100BF00010F4371801C0312C24FF12C0B70180E374
:100C000090E02C870E947C092C8522FF17C021FFD1
:100C100003C088E590E002C088E790E0B7010CC00F
:100C2000822F867859F021FD02C080E201C08BE25C
:100C300027FD8DE2B70190E00E947C09A51438F4ED
:100C4000B70180E390E00E947C095A94F7CFAA9400
:100C5000F401EA0DF11D8081B70190E00E947C094A
:100C6000A110F5CF332009F451CEB70180E290E016
:100C70000E947C093A94F6CFF7018681978102C0E1
:100C80008FEF9FEF2C96E2E10C94440A20FD09C0FF
:100C9000FC0123FD05C022FF02C0738362835183E0
:100CA0004083089544FD10C046FD10C0DB01FC01E7
:100CB000AA0FBB1FEE1FFF1F1094D1F76A0F7B1FF7
:100CC0008E1F9F1F31E003C033E001C034E0660F88
:100CD000771F881F991F3150D1F7620F711D811D39
:100CE000911D08950F931F93CF93DF938C01C8013B
:100CF0000E943E09EC0197FD08C00E941509892B4E
:100D0000B1F7B801CE010E94AE09CE01DF91CF91BB
:100D10001F910F9108958F929F92AF92CF92DF9281
:100D2000EF92FF920F931F93CF93DF93EC01A62EC8
:100D30004A01022F0E943E09AC0155274B32510552
:100D400021F04D32510551F40068AA9411F480E06D
:100D500067C0CE010E943E0997FDF9CF102F1D7F7D
:100D6000302F307301F58033F1F4FF24FA94FA0C3C
:100D700009F442C0CE010E943E0997FD3DC0382FC4
:100D80003F7D383551F41264AA94AA94A9F1CE019A
:100D90000E943E0997FF07C02FC006FF02C01260E5
:100DA00001C01261AF2CC12CD12C760120ED280F8F
:100DB000283080F014FF04C0BE010E94AE0919C0A3
:100DC0002A3040F016FFF8CF2F7D3FEE320F36303D
:100DD00098F72750412FC701B6010E9452066B01B8
:100DE0007C011260AA9459F0CE010E943E0997FF3F
:100DF000DDCF11FD04C0ABCFC12CD12C760117FF84
:100E000008C0F094E094D094C094C11CD11CE11CA3
:100E1000F11C212FB701A601C4010E94460681E002
:100E2000DF91CF911F910F91FF90EF90DF90CF90C6
:100E3000AF909F908F900895A1E2B0E0E2E2F7E0DA
:100E40000C942D0A5C017A018E010F5F1F4F68011F
:100E500080E2D8011D928A95E9F7F501738040E0A0
:100E600050E0812CB0E0912C81E090E0F90173FC1E
:100E7000A59173FEA1918F017A2F9F01A11103C04B
:100E800080E090E07DC0AE3519F44115510559F16F
:100E9000E92DF0E0E417F5073CF4AD3569F1AD322A
:100EA00019F4BB2319F103C0B11101C08A2EE72F39
:100EB000E695E695E69586010E0F111DF801A72F20
:100EC000A7708C0102C0000F111FAA95E2F7D8018C
:100ED000B081BA2BB083781559F0781510F47F5F84
:100EE000E6CF7150E4CF9924939403C0B1E001C0E0
:100EF000B0E04F5F5F4FBACFBB2319F08E818062A5
:100F00008E83911003C09924939415C0F601CE01ED
:100F10008196208120952193E817F907D1F7F3CF27
:100F2000E114F10429F0D7018C93F70131967F0188
:100F3000615001F1912CC50169A30E943E0969A18C
:100F400097FD16C0282F269526952695F601E20FC7
:100F5000F11D208130E0AC014770552702C0359566
:100F600027954A95E2F720FDDBCFB5010E94AE0937
:100F7000911086CFE114F10411F0D7011C92C80141
:100F8000A196EDE00C94490A4F925F927F928F9266
:100F90009F92AF92BF92CF92DF92EF92FF920F9308
:100FA0001F93CF93DF931F92CDB7DEB78C012B0138
:100FB0007A01FC0117821682A12CF801D380F2017C
:100FC000D3FC8591D3FE8191382F2F01882309F41A
:100FD000FCC090E039830E9415093981892B21F0EA
:100FE000C8010E947206E9CF353241F4F201D3FC08
:100FF0003591D3FE31912F01353269F4C80139831F
:101000000E943E09398197FDDEC03817B1F2B80160
:101010000E94AE09DAC03A3241F4D3FC3591D3FED6
:1010200031912F01BB24B39401C0B12C712C20ED60
:10103000230F2A3090F4FB2DF260BF2E672D70E055
:1010400080E090E040E20E945206762EF201D3FC4E
:101050003591D3FE31912F01EACFB1FE03C071105B
:1010600003C0B3C077247A94383619F03C3661F067
:1010700014C0F201D3FC3591D3FE31912F013836E3
:1010800061F4FB2DF860BF2E8B2D8460B82EF20129
:10109000D3FC3591D3FE31912F01332309F495C050
:1010A000632F70E088E690E039830E941D09398142
:1010B000892B09F48AC0B0FC07C0F701C080D18039
:1010C000C70102967C0102C0C12CD12C3E3651F4DE
:1010D000F8014681578160E070E02B2DC6010E9427
:1010E00046066BCF3336A1F4B1FC02C0772473946B
:1010F000C8010E943E0997FD66C0C114D10429F0C1
:10110000F6018083C60101966C017A9489F757C075
:101110003B3559F49201A601672DC8010E941C07B6
:101120002C01009709F04BC045C0C80139830E94CB
:101130007206398197FD47C03F3669F128F434368D
:1011400031F1393679F12BC0333769F03537F9F0A1
:1011500026C0C114D10429F0F6018082C60101968F
:101160006C017A9471F0C8010E943E094C0197FD10
:1011700008C00E941509892B61F3B801C4010E94BF
:10118000AE09C114D104D9F0F601108218C0FB2DAC
:10119000F062BF2E07C08B2D8061B82E03C09B2D3F
:1011A0009064B92E2B2DA601672DC8010E948B06D5
:1011B000811105C0F8018381807329F406C0B0FC59
:1011C000FCCEA394FACEAA2019F08A2D90E002C09A
:1011D0008FEF9FEF0F90DF91CF911F910F91FF90B5
:1011E000EF90DF90CF90BF90AF909F908F907F90C7
:1011F0005F904F900895F999FECF92BD81BDF89A06
:10120000992780B50895262FF999FECF92BD81BD0B
:10121000F89A019700B4021639F01FBA20BD0FB634
:10122000F894FA9AF99A0FBE089591110EC180327E
:1012300019F089508550D0F70895FC0105900616E5
:1012400021F00020D9F7C00108953197CF0108950A
:10125000FC010590615070400110D8F78095909581
:101260008E0F9F1F0895FC01615070400190011086
:10127000D8F7809590958E0F9F1F0895CF93DF9399
:10128000EC012B8120FF33C026FF0AC02F7B2B836C
:101290008E819F8101969F838E838A8190E029C0F1
:1012A00022FF0FC0E881F9818081992787FD909501
:1012B000009719F420622B831AC03196F983E883D2
:1012C0000EC0EA85FB85099597FF09C02B81019621
:1012D00011F480E101C080E2822B8B8308C02E8153
:1012E0003F812F5F3F4F3F832E83992702C08FEFAF
:1012F0009FEFDF91CF9108950F931F93CF93DF93CB
:10130000182F092FEB018B8181FD03C08FEF9FEF19
:1013100020C082FF10C04E815F812C813D81421729
:1013200053077CF4E881F9819F012F5F3F4F398398
:101330002883108306C0E885F985812F0995892BBC
:1013400029F72E813F812F5F3F4F3F832E83812FCF
:10135000902FDF91CF911F910F910895FB01238171
:1013600020FF12C026FD10C08F3F3FEF930761F0B2
:1013700082832F7D20642383268137812150310988
:1013800037832683992708958FEF9FEF0895FA01F9
:10139000AA27283051F1203181F1E8946F936E7FB4
:1013A0006E5F7F4F8F4F9F4FAF4FB1E03ED0B4E0A5
:1013B0003CD0670F781F891F9A1FA11D680F791FE6
:1013C0008A1F911DA11D6A0F711D811D911DA11DF7
:1013D00020D009F468943F912AE0269F1124301907
:1013E000305D3193DEF6CF010895462F4770405DA2
:1013F0004193B3E00FD0C9F7F6CF462F4F70405D51
:101400004A3318F0495D31FD4052419302D0A9F7AB
:10141000EACFB4E0A6959795879577956795BA95A5
:10142000C9F700976105710508959B01AC010A2E6B
:1014300006945795479537952795BA95C9F7620F42
:10144000731F841F951FA01D08959927882708954D
:101450002F923F924F925F926F927F928F929F92C4
:10146000AF92BF92CF92DF92EF92FF920F931F93B2
:10147000CF93DF93CDB7DEB7CA1BDB0B0FB6F89463
:10148000DEBF0FBECDBF09942A88398848885F84A3
:101490006E847D848C849B84AA84B984C884DF8014
:1014A000EE80FD800C811B81AA81B981CE0FD11DF8
:1014B0000FB6F894DEBF0FBECDBFED010895F894CE
:0214C000FFCF5C
:1014C20006012533646D732533642E256420636D14
:1014D2002F73002025346420004D41583D2025649F
:0A14E2000025642E2564002F300061
:00000001FF
