:100000000C9434000C9451000C9451000C94510049
:100010000C9451000C9451000C9451000C9451001C
:100020000C9451000C9451000C9451000C9451000C
:100030000C9451000C9451000C9451000C945100FC
:100040000C9451000C9451000C9480000C945100BD
:100050000C9451000C9451000C9451000C945100DC
:100060000C9451000C94510011241FBECFEFD8E026
:10007000DEBFCDBF11E0A0E0B1E0E0EBF3E002C0F5
:1000800005900D92A23DB107D9F721E0A2EDB1E0B4
:1000900001C01D92A63EB207E1F70E9457010C94E1
:1000A000D6010C94000087E690E09093C500809301
:1000B000C40086E08093C200E1ECF0E080818861BA
:1000C0008083539A5B9808959091C00095FFFCCF70
:1000D0008093C60008950F931F93CF93DF938C01F5
:1000E000C0E0D0E0F80181918F010E946400219668
:1000F000C031D105B9F7DF91CF911F910F910895CC
:100100001F920F920FB60F9211248F939F93EF932C
:10011000FF938091C600E091D201F091D301EB52A0
:10012000FE4F80838091D2019091D30101969093EC
:10013000D3018093D2018091D2019091D301409755
:1001400059F485E291E08093E50181E08093D40148
:100150001092D3011092D201FF91EF919F918F9154
:100160000F900FBE0F901F901895ECE7F0E02081E4
:10017000982F9F709095922390839081982B9083D5
:1001800080818F778083808180648083808180629A
:100190008083AAE7B0E08C9187608C938C91806813
:1001A0008C938C9187788C9380818F7E8083089547
:1001B00080917A00806480937A0080917A0086FD35
:1001C000FCCF8091790008959BB19F709BB99BB142
:1001D000807F892B8BB9299A299A29980895CF93E2
:1001E000C82F28980E94E4008C2F8295807F0E945F
:1001F000E4008FE39FE10197F1F700C00000CF9189
:100200000895811102C080E801C080EC860F0C9433
:10021000EF008AB1806F8AB984B1836084B98FE5B9
:100220009AEE0197F1F700C0000083E00E94E4001D
:100230008FE19EE40197F1F700C0000083E00E9487
:10024000E4008FED91E00197F1F700C0000083E03A
:100250000E94E40083E00E94E4008FE39FE10197A5
:10026000F1F700C0000088E20E94EF008FE00C94DC
:10027000EF00CF93C82F289A0E94E4008C2F82951C
:10028000807F0E94E4008FE39FE10197F1F700C0B7
:100290000000CF910895CF93DF93EC0189918823DB
:1002A00019F00E943901FACFDF91CF9108950E9491
:1002B000090180E00E94B50087E690E00E945300AB
:1002C0001092D4018091C10080688093C10078941D
:1002D00081E00E94EF0060E080E00E94010184E183
:1002E00091E00E944B012FEF83ED90E3215080407D
:1002F0009040E1F700C00000C0E00E94D80094EEFA
:10030000980F913358F42FEF89E698E121508040FF
:100310009040E1F700C00000CF5F11C09DEA980F48
:100320009133F8F42FEF89E698E121508040904016
:10033000E1F700C00000C11101C0CAE0C150CA30DD
:1003400009F4C0E060E080E00E940101EC2FF0E0E1
:10035000EE0FFF1FE050FF4F808191810E944B0103
:1003600016C08D5B8A3298F4EC2FF0E0EE0FFF1F81
:10037000E050FF4F808191810E946B002FEF89E652
:1003800098E1215080409040E1F700C0000080914A
:10039000D401813009F0B1CF1092D40160E00E9405
:1003A000010185ED91E00E944B01A7CFF894FFCFAA
:1003B000280139014A015B016C017D018E019F0119
:1003C000B001C10143686F6F73652061204D657393
:1003D00073616765002F300048656C6C6F202020CA
:1003E000202020202020202000486F772061726587
:1003F00020796F753F2020202000486176652075A8
:1004000020646F6E65206C61623F0043616E20491D
:1004100020676F20686F6D653F3A44004F6B6179CC
:100420002062796521203A4420203A44004974270B
:100430007320202020202020636F6C6421005768E7
:10044000656E206C61622773206475653F200054DF
:1004500068616E6B20796F7521212020202020009B
:100460004920616D2068756E6772792120202020F7
:10047000004C656176696969696E6E6767672E2EE3
:020480002E004C
:00000001FF
