:100000000C9434000C9451000C9451000C94510049
:100010000C9451000C9451000C9451000C9451001C
:100020000C9451000C9451000C9451000C946500F8
:100030000C9451000C9451000C9451000C945100FC
:100040000C9451000C9451000C9451000C945100EC
:100050000C9451000C9451000C9451000C945100DC
:100060000C9451000C94510011241FBECFEFD8E026
:10007000DEBFCDBF11E0A0E0B1E0ECEEF9E002C0E0
:1000800005900D92AA30B107D9F721E0AAE0B1E0BE
:1000900001C01D92AF30B207E1F70E943D010C9400
:1000A000F4040C940000E1E8F0E020812860208353
:1000B000AFE6B0E02C9122602C939093890080935E
:1000C000880080818460808308951F920F920FB60C
:1000D0000F9211248F9380910E01813019F4809337
:1000E0000D0104C080910E01823029F580910C0130
:1000F00080910C018F5F80930C0180910C018A30FC
:10010000D1F480910B018F5F80930B0110920C0151
:1001100080910B018A3079F480910A018F5F80937E
:100120000A0110920B0180910A01863021F410928D
:100130000A0110920B018F910F900FBE0F901F902C
:100140001895ECE7F0E09081982B908380818F7771
:100150008083808180648083808180628083AAE73D
:10016000B0E08C9187608C938C9180688C938C919B
:1001700087788C9380818F7E8083089580917A0028
:10018000806480937A0080917A0086FDFCCF809114
:10019000790008959BB19F709BB99BB1807F892B9B
:1001A0008BB9299A299A29980895CF93C82F28980E
:1001B0000E94CA008C2F8295807F0E94CA008FE324
:1001C0009FE10197F1F700C00000CF9108958111E0
:1001D00002C080E801C080EC860F0C94D5008AB183
:1001E000806F8AB984B1836084B98FE59AEE0197F4
:1001F000F1F700C0000083E00E94CA008FE19EE496
:100200000197F1F700C0000083E00E94CA008FED63
:1002100091E00197F1F700C0000083E00E94CA005E
:1002200083E00E94CA008FE39FE10197F1F700C0CD
:10023000000088E20E94D5008FE00C94D500CF9397
:10024000C82F289A0E94CA008C2F8295807F0E9416
:10025000CA008FE39FE10197F1F700C00000CF9142
:100260000895CF93DF93EC018991882319F00E94C0
:100270001F01FACFDF91CF910895CF93DF93CDB7D0
:10028000DEB764970FB6F894DEBF0FBECDBF509AAD
:100290000E94EF0010920E0110920D0180E00E946A
:1002A000A1008AE698E10E945300789481E00E94C0
:1002B000D50062E080E00E94E70020910C0190915F
:1002C0000B0180910A011F922F931F929F931F92FF
:1002D0008F9380E091E09F938F931F928AE08F939A
:1002E0008E01055F1F4F1F930F930E941502C801D7
:1002F0000E9431010FB6F894DEBF0FBECDBFDD24E2
:10030000D39482E0B82E90E0E92E91E0F92E2AE015
:10031000C22E0A5011090E94BE0090910E01911147
:1003200012C09DEA980F9133E0F510920C011092E3
:100330000B0110920A01D0920D018355813360F4B4
:100340000E94BE00FACF90910E019130C1F19091C0
:100350000E01923009F451C080910D018130D9F61F
:1003600062E080E00E94E70020910C0190910B0177
:1003700080910A011F922F931F929F931F928F9338
:10038000FF92EF921F92CF921F930F930E9415023C
:10039000C8010E9431010FB6F894DEBF0FBECDBF79
:1003A000BACF94EE980F9133B8F6D0920E01D09256
:1003B0000D018C51813380F60E94BE00FACF9DEA78
:1003C000980F913350F4B0920E0110920D018355A5
:1003D000813310F60E94BE00FACF94EE980F91334D
:1003E00008F0BACF10920E0110920D018C5181339A
:1003F00008F0B2CF0E94BE00F9CF9DEA980F91336A
:1004000028F094EE980F913308F0A6CFD0920E0109
:10041000D0920D019DEA980F913318F40E94BE000E
:10042000F9CF8C518133D0F397CFAEE0B0E0EBE160
:10043000F2E00C94CB040D891E898F89988D26E0FB
:100440002C831A83098397FF02C080E090E801970C
:100450009E838D83AE01455E5F4F698D7A8DCE019F
:1004600001960E9445024D815E8157FD0AC02F8191
:100470003885421753070CF49A01F801E20FF31F75
:1004800010822E96E4E00C94E704ACE0B0E0EBE4DC
:10049000F2E00C94BD047C016B018A01FC0117821F
:1004A0001682838181FFBDC1CE0101964C01F70107
:1004B0009381F60193FD859193FF81916F018823CC
:1004C00009F4ABC1853239F493FD859193FF819195
:1004D0006F01853229F4B70190E00E942D04E7CF27
:1004E000512C312C20E02032A0F48B3269F030F412
:1004F000803259F0833269F420612CC08D3239F09A
:10050000803339F4216026C02260246023C0286033
:1005100021C027FD27C030ED380F3A3078F426FF90
:1005200006C0FAE05F9E300D1124532E13C08AE0FE
:10053000389E300D1124332E20620CC08E3221F4EF
:1005400026FD6BC1206406C08C3611F4206802C001
:10055000883641F4F60193FD859193FF81916F01F7
:100560008111C1CF982F9F7D9554933028F40C5F53
:100570001F4FFFE3F9830DC0833631F0833771F0ED
:10058000833509F05BC022C0F801808189830E5F4A
:100590001F4F44244394512C540115C03801F2E0FC
:1005A0006F0E711CF801A080B18026FF03C0652D7D
:1005B00070E002C06FEF7FEFC5012C870E9422041C
:1005C0002C0183012C852F77222E17C03801F2E0F1
:1005D0006F0E711CF801A080B18026FF03C0652D4D
:1005E00070E002C06FEF7FEFC5012C870E941704F7
:1005F0002C012C852068222E830123FC1BC0832D17
:1006000090E048165906B0F4B70180E290E00E94ED
:100610002D043A94F4CFF50127FC859127FE8191B2
:100620005F01B70190E00E942D0431103A94F1E08F
:100630004F1A51084114510471F7E5C0843611F086
:10064000893639F5F80127FF07C060817181828101
:1006500093810C5F1F4F08C060817181882777FDEF
:100660008095982F0E5F1F4F2F76B22E97FF09C0EF
:1006700090958095709561957F4F8F4F9F4F206823
:10068000B22E2AE030E0A4010E945F04A82EA81830
:1006900044C0853729F42F7EB22E2AE030E025C0F1
:1006A000F22FF97FBF2E8F36C1F018F4883579F01C
:1006B000B4C0803719F0883721F0AFC02F2F2061E8
:1006C000B22EB4FE0DC08B2D8460B82E09C024FF5D
:1006D0000AC09F2F9660B92E06C028E030E005C002
:1006E00020E130E002C020E132E0F801B7FE07C0AF
:1006F00060817181828193810C5F1F4F06C0608190
:10070000718180E090E00E5F1F4FA4010E945F04A2
:10071000A82EA818FB2DFF77BF2EB6FE0BC02B2DE1
:100720002E7FA51450F4B4FE0AC0B2FC08C02B2DD5
:100730002E7E05C07A2C2B2D03C07A2C01C0752C7F
:1007400024FF0DC0FE01EA0DF11D8081803311F4FC
:10075000297E09C022FF06C07394739404C0822FBF
:10076000867809F0739423FD13C020FF06C05A2C2D
:10077000731418F4530C5718732C731468F4B701DE
:1007800080E290E02C870E942D0473942C85F5CF95
:10079000731410F4371801C0312C24FF12C0B701B4
:1007A00080E390E02C870E942D042C8522FF17C047
:1007B00021FF03C088E590E002C088E790E0B70120
:1007C0000CC0822F867859F021FD02C080E201C062
:1007D0008BE227FD8DE2B70190E00E942D04A51465
:1007E00038F4B70180E390E00E942D045A94F7CFCB
:1007F000AA94F401EA0DF11D8081B70190E00E94F6
:100800002D04A110F5CF332009F451CEB70180E2B9
:1008100090E00E942D043A94F6CFF70186819781EB
:1008200002C08FEF9FEF2C96E2E10C94D904FC01FB
:100830000590615070400110D8F7809590958E0F0B
:100840009F1F0895FC016150704001900110D8F77E
:10085000809590958E0F9F1F08950F931F93CF93B0
:10086000DF93182F092FEB018B8181FD03C08FEFE0
:100870009FEF20C082FF10C04E815F812C813D819F
:10088000421753077CF4E881F9819F012F5F3F4FA6
:1008900039832883108306C0E885F985812F09955F
:1008A000892B29F72E813F812F5F3F4F3F832E8376
:1008B000812F902FDF91CF911F910F910895FA0111
:1008C000AA27283051F1203181F1E8946F936E7F8F
:1008D0006E5F7F4F8F4F9F4FAF4FB1E03ED0B4E080
:1008E0003CD0670F781F891F9A1FA11D680F791FC1
:1008F0008A1F911DA11D6A0F711D811D911DA11DD2
:1009000020D009F468943F912AE0269F11243019E1
:10091000305D3193DEF6CF010895462F4770405D7C
:100920004193B3E00FD0C9F7F6CF462F4F70405D2B
:100930004A3318F0495D31FD4052419302D0A9F786
:10094000EACFB4E0A6959795879577956795BA9580
:10095000C9F700976105710508959B01AC010A2E46
:1009600006945795479537952795BA95C9F7620F1D
:10097000731F841F951FA01D08952F923F924F92C1
:100980005F926F927F928F929F92AF92BF92CF921F
:10099000DF92EF92FF920F931F93CF93DF93CDB728
:1009A000DEB7CA1BDB0B0FB6F894DEBF0FBECDBFA0
:1009B00009942A88398848885F846E847D848C8471
:1009C0009B84AA84B984C884DF80EE80FD800C817A
:1009D0001B81AA81B981CE0FD11D0FB6F894DEBF5D
:0C09E0000FBECDBFED010895F894FFCFCD
:0A09EC0020256425642E25642000F8
:00000001FF
