:100000000C9434000C943E000C943E000C943E0082
:100010000C943E000C943E000C943E000C943E0068
:100020000C943E000C943E000C943E000C943E0058
:100030000C943E000C943E000C943E000C943E0048
:100040000C943E000C943E000C943E000C943E0038
:100050000C943E000C943E000C943E000C943E0028
:100060000C943E000C943E0011241FBECFEFD8E04C
:10007000DEBFCDBF0E94B3000C9403010C940000BE
:100080009BB19F709BB99BB1807F892B8BB9299ABB
:10009000299A29980895CF93C82F28980E94400044
:1000A0008C2F8295807F0E9440008FE39FE1019713
:1000B000F1F700C00000CF910895811102C080E8DF
:1000C00001C080EC860F0C944B008AB1806F8AB916
:1000D00084B1836084B98FE59AEE0197F1F700C08F
:1000E000000083E00E9440008FE19EE40197F1F759
:1000F00000C0000083E00E9440008FED91E0019776
:10010000F1F700C0000083E00E94400083E00E94FD
:1001100040008FE39FE10197F1F700C0000088E203
:100120000E944B008FE00C944B00CF93C82F289A6D
:100130000E9440008C2F8295807F0E9440008FE3B8
:100140009FE10197F1F700C00000CF910895CF9390
:10015000DF93EC018991882319F00E949500FACF72
:10016000DF91CF9108958AB1806F8AB984B183609D
:1001700084B90E94650088B1846188B9D0E011E03B
:10018000C0E081E00E944B002FEF81EE94E021500F
:1001900080409040E1F700C00000329B04C03499D9
:1001A00003C012E001C011E0DF5FD53051F780E3FA
:1001B0008C0F113099F40E949500CF5F2FEF81EEE4
:1001C00094E0215080409040E1F700C0000081E0C1
:1001D0000E944B00D0E0CA30A1F6D2CF0E94950019
:1001E000C11101C0CAE0C1502FEF81EE94E021504F
:1001F00080409040E1F700C0000081E00E944B0089
:0A020000D0E012E0BECFF894FFCF6B
:00000001FF
