:100000000C9434000C9449000C9449000C94490061
:100010000C9449000C9449000C9449000C9449003C
:100020000C9449000C9449000C9449000C9449002C
:100030000C9449000C9449000C9449000C9449001C
:100040000C9449000C9449000C9449000C9449000C
:100050000C9449000C9449000C9449000C944900FC
:100060000C9449000C94490011241FBECFEFD8E036
:10007000DEBFCDBF11E0A0E0B1E0E2EBF1E002C0F5
:1000800005900D92A632B107D9F70E94B9000C94E1
:10009000D7000C9400009BB19F709BB99BB1807FEF
:1000A000982B9BB9299A299A29980895CF93C82FFC
:1000B00028980E944B008C2F8295807F0E944B00D5
:1000C0008FE39FE10197F1F700C00000CF91089501
:1000D00090E4899F600D11248FEB860F80680C944B
:1000E00056008FE59AEE0197F1F700C0000080E31B
:1000F0000E944B008FE19EE40197F1F700C00000E1
:1001000080E30E944B008FED91E00197F1F700C072
:10011000000080E30E944B0080E20E944B008FE3CE
:100120009FE10197F1F700C0000088E20E945600AD
:100130008FE00C945600CF93C82F289A0E944B0052
:100140008C2F8295807F0E944B008FE39FE1019767
:10015000F1F700C00000CF910895CF93DF93EC0139
:100160008991882319F00E949B00FACFDF91CF91EB
:1001700008958AB1806F8AB984B1836084B90E947E
:10018000710081E00E94560080E80E945600809134
:100190000201909103010E94AD0080EC0E94560084
:1001A00080910001909101010E94AD00FFCFF89471
:0201B000FFCF7F
:1001B200040115013E3E2055534320454531303957
:1001C2004C203C3C004C43442054657374205072D4
:0601D2006F6772616D0011
:00000001FF
