:100000000C9434000C943E000C943E000C943E0082
:100010000C943E000C943E000C943E000C943E0068
:100020000C943E000C943E000C943E000C943E0058
:100030000C943E000C943E000C943E000C943E0048
:100040000C943E000C943E000C943E000C943E0038
:100050000C943E000C943E000C943E000C943E0028
:100060000C943E000C943E0011241FBECFEFD8E04C
:10007000DEBFCDBF0E9480000C94A9000C9400004C
:10008000811102C028980895813009F4289A0895B2
:10009000289A2FEF84E39CE0215080409040E1F7C4
:1000A00000C0000080E00E9440002FEF84E39CE04D
:1000B000215080409040E1F700C000000895289A48
:1000C0002FEF8EE994E2215080409040E1F700C08C
:1000D000000080E00E9440002FEF84E39CE021506C
:1000E00080409040E1F700C00000089529B130E061
:1000F00002C0359527958A95E2F7822F8170089581
:10010000209A58988BB18C618BB984E00E9476005C
:10011000811107C00E9448000E9448000E945F00B1
:10012000F4CF83E00E947600811105C00E94480050
:100130000E9448000BC082E00E9476008111E5CF4A
:100140000E945F000E9448000E945F000E944800D9
:06015000DCCFF894FFCFA4
:00000001FF
