:100000000C9434000C9451000C9451000C94510049
:100010000C9453000C9451000C9451000C9451001A
:100020000C9451000C9451000C9451000C9451000C
:100030000C9451000C9451000C9451000C945100FC
:100040000C9451000C9451000C9451000C945100EC
:100050000C9451000C9451000C9451000C945100DC
:100060000C9451000C94510011241FBECFEFD8E026
:10007000DEBFCDBF11E0A0E0B1E0E6E2FBE002C0F0
:1000800005900D92A232B107D9F721E0A2E2B1E0CA
:1000900001C01D92AB32B207E1F70E9475010C94CA
:1000A00091050C9400001F920F920FB60F9211242D
:1000B0008F939F9386B1809329018091290182704B
:1000C00080932A018091290180728093220180917E
:1000D000230181110DC080912A01882311F081E054
:1000E0002EC080912201882309F441C082E034C0EF
:1000F00080912301813069F480912201882311F0DD
:1001000083E01DC080912A01811131C01092260127
:1001100025C080912301823069F4809122018111F0
:1001200003C0109226010DC080912A018823F9F0A6
:1001300083E012C080912A01811109C082E080937E
:100140002601809127019091280101960CC0809191
:10015000220181110CC081E080932601809127014A
:100160009091280101979093280180932701909105
:10017000260180912301981751F081E090E090933F
:1001800025018093240180912601809323019F9172
:100190008F910F900FBE0F901F90189505966AE0F3
:1001A00070E00E9449026115710539F085E38A9576
:1001B000F1F7000061507109F6CF08950F931F9376
:1001C000CF93DF93EC019C0140E050E060E472E4E7
:1001D0008FE090E00E945D025695479537952795F0
:1001E0008901209751F02C9AC8010E94CE002C98CA
:1001F000C8010E94CE002197F4CFDF91CF911F91CB
:100200000F9108959BB19F709BB99BB1807F892B03
:100210008BB9299A299A29980895CF93C82F28989D
:100220000E9402018C2F8295807F0E9402018FE341
:100230009FE10197F1F700C00000CF91089581116F
:1002400002C080E801C080EC860F0C940D018AB1D9
:10025000806F8AB984B1836084B98FE59AEE019783
:10026000F1F700C0000083E00E9402018FE19EE4EC
:100270000197F1F700C0000083E00E9402018FEDBA
:1002800091E00197F1F700C0000083E00E940201B5
:1002900083E00E9402018FE39FE10197F1F700C024
:1002A000000088E20E940D018FE00C940D01CF93B5
:1002B000C82F289A0E9402018C2F8295807F0E946D
:1002C00002018FE39FE10197F1F700C00000CF9199
:1002D0000895CF93DF93EC018991882319F00E9450
:1002E0005701FACFDF91CF910895CF93DF9300D0DC
:1002F00000D01F92CDB7DEB71092280110922701CF
:1003000084B1836184B98AB1806F8AB980916800B1
:1003100082608093680080916C00826280936C00A0
:1003200078940E94270188B1826288B981E00E9496
:100330000D0162E080E00E941F0180E191E00E94D7
:1003400069012FEF33ED80E3215030408040E1F729
:1003500000C0000086B1809329018091290182703C
:1003600080932A01809129018072809322018091DB
:100370002201811107C080912A01811103C01092CE
:10038000230117C080912201811106C080912A01AA
:10039000882311F081E00BC080912201882331F085
:1003A00080912A01811102C082E001C083E0809324
:1003B0002301809123018093260161E081E00E9466
:1003C0001F0180912701909128019F938F938EE1C7
:1003D00091E09F938F931F9281E18F938E010F5F26
:1003E0001F4F1F930F930E94B202C8010E94690120
:1003F00010922501109224010FB6F894DEBF0FBEB3
:10040000CDBF2EE1E22E21E0F22E31E1D32E8091FC
:100410002401909125010197D1F7109225011092A6
:10042000240161E081E00E941F01809127019091E9
:1004300028019F938F93FF92EF921F92DF921F9359
:100440000F930E94B202C8010E94690180912701A6
:1004500090912801877099270FB6F894DEBF0FBEE0
:10046000CDBF892BA1F6E0912701F0912801F7FF7C
:1004700003C0F195E195F109F695E795F695E795B5
:10048000EE70FF27E050FF4F808191810E94DE00D7
:10049000BECF97FB072E16F4009407D077FD09D046
:1004A0000E947C0207FC05D03EF4909581959F4FF9
:1004B0000895709561957F4F0895052E97FB1EF462
:1004C00000940E94740257FD07D00E94900207FC1E
:1004D00003D04EF40C9474025095409530952195BC
:1004E0003F4F4F4F5F4F0895909580957095619560
:1004F0007F4F8F4F9F4F0895AA1BBB1B51E107C031
:10050000AA1FBB1FA617B70710F0A61BB70B881FA3
:10051000991F5A95A9F780959095BC01CD01089532
:10052000A1E21A2EAA1BBB1BFD010DC0AA1FBB1FF7
:10053000EE1FFF1FA217B307E407F50720F0A21B69
:10054000B30BE40BF50B661F771F881F991F1A94D6
:1005500069F760957095809590959B01AC01BD0100
:10056000CF010895AEE0B0E0E8EBF2E00C9468054E
:100570000D891E898F89988D26E02C831A83098323
:1005800097FF02C080E090E801979E838D83AE01C3
:10059000455E5F4F698D7A8DCE0101960E94E20221
:1005A0004D815E8157FD0AC02F8138854217530760
:1005B0000CF49A01F801E20FF31F10822E96E4E08A
:1005C0000C948405ACE0B0E0E8EEF2E00C945A053F
:1005D0007C016B018A01FC0117821682838181FFF5
:1005E000BDC1CE0101964C01F7019381F60193FD47
:1005F000859193FF81916F01882309F4ABC1853206
:1006000039F493FD859193FF81916F01853229F42F
:10061000B70190E00E94CA04E7CF512C312C20E0B2
:100620002032A0F48B3269F030F4803259F08332FA
:1006300069F420612CC08D3239F0803339F42160A7
:1006400026C02260246023C0286021C027FD27C067
:1006500030ED380F3A3078F426FF06C0FAE05F9E9E
:10066000300D1124532E13C08AE0389E300D112412
:10067000332E20620CC08E3221F426FD6BC1206423
:1006800006C08C3611F4206802C0883641F4F601A9
:1006900093FD859193FF81916F018111C1CF982FB7
:1006A0009F7D9554933028F40C5F1F4FFFE3F9832F
:1006B0000DC0833631F0833771F0833509F05BC0AC
:1006C00022C0F801808189830E5F1F4F4424439428
:1006D000512C540115C03801F2E06F0E711CF80165
:1006E000A080B18026FF03C0652D70E002C06FEFCF
:1006F0007FEFC5012C870E94BF042C0183012C854C
:100700002F77222E17C03801F2E06F0E711CF8010E
:10071000A080B18026FF03C0652D70E002C06FEF9E
:100720007FEFC5012C870E94B4042C012C85206822
:10073000222E830123FC1BC0832D90E0481659060E
:10074000B0F4B70180E290E00E94CA043A94F4CF7A
:10075000F50127FC859127FE81915F01B70190E0AB
:100760000E94CA0431103A94F1E04F1A5108411422
:10077000510471F7E5C0843611F0893639F5F80176
:1007800027FF07C060817181828193810C5F1F4FB9
:1007900008C060817181882777FD8095982F0E5F52
:1007A0001F4F2F76B22E97FF09C0909580957095B8
:1007B00061957F4F8F4F9F4F2068B22E2AE030E027
:1007C000A4010E94FC04A82EA81844C0853729F46F
:1007D0002F7EB22E2AE030E025C0F22FF97FBF2E07
:1007E0008F36C1F018F4883579F0B4C0803719F02D
:1007F000883721F0AFC02F2F2061B22EB4FE0DC07C
:100800008B2D8460B82E09C024FF0AC09F2F9660EC
:10081000B92E06C028E030E005C020E130E002C07B
:1008200020E132E0F801B7FE07C06081718182816A
:1008300093810C5F1F4F06C06081718180E090E062
:100840000E5F1F4FA4010E94FC04A82EA818FB2DC8
:10085000FF77BF2EB6FE0BC02B2D2E7FA51450F4B4
:10086000B4FE0AC0B2FC08C02B2D2E7E05C07A2C27
:100870002B2D03C07A2C01C0752C24FF0DC0FE0166
:10088000EA0DF11D8081803311F4297E09C022FF19
:1008900006C07394739404C0822F867809F0739411
:1008A00023FD13C020FF06C05A2C731418F4530CF8
:1008B0005718732C731468F4B70180E290E02C870A
:1008C0000E94CA0473942C85F5CF731410F4371862
:1008D00001C0312C24FF12C0B70180E390E02C87C7
:1008E0000E94CA042C8522FF17C021FF03C088E59F
:1008F00090E002C088E790E0B7010CC0822F8678B4
:1009000059F021FD02C080E201C08BE227FD8DE29B
:10091000B70190E00E94CA04A51438F4B70180E33F
:1009200090E00E94CA045A94F7CFAA94F401EA0D09
:10093000F11D8081B70190E00E94CA04A110F5CF9B
:10094000332009F451CEB70180E290E00E94CA043E
:100950003A94F6CFF7018681978102C08FEF9FEF1F
:100960002C96E2E10C947605FC01059061507040F4
:100970000110D8F7809590958E0F9F1F0895FC0168
:100980006150704001900110D8F7809590958E0FBE
:100990009F1F08950F931F93CF93DF93182F092F55
:1009A000EB018B8181FD03C08FEF9FEF20C082FFA1
:1009B00010C04E815F812C813D81421753077CF42A
:1009C000E881F9819F012F5F3F4F3983288310838E
:1009D00006C0E885F985812F0995892B29F72E8195
:1009E0003F812F5F3F4F3F832E83812F902FDF91D9
:1009F000CF911F910F910895FA01AA27283051F144
:100A0000203181F1E8946F936E7F6E5F7F4F8F4F3F
:100A10009F4FAF4FB1E03ED0B4E03CD0670F781F9E
:100A2000891F9A1FA11D680F791F8A1F911DA11D83
:100A30006A0F711D811D911DA11D20D009F46894BC
:100A40003F912AE0269F11243019305D3193DEF664
:100A5000CF010895462F4770405D4193B3E00FD01A
:100A6000C9F7F6CF462F4F70405D4A3318F0495D05
:100A700031FD4052419302D0A9F7EACFB4E0A695E8
:100A80009795879577956795BA95C9F7009761050A
:100A9000710508959B01AC010A2E06945795479560
:100AA00037952795BA95C9F7620F731F841F951F55
:100AB000A01D08952F923F924F925F926F927F9266
:100AC0008F929F92AF92BF92CF92DF92EF92FF925E
:100AD0000F931F93CF93DF93CDB7DEB7CA1BDB0B0A
:100AE0000FB6F894DEBF0FBECDBF09942A883988AF
:100AF00048885F846E847D848C849B84AA84B984B6
:100B0000C884DF80EE80FD800C811B81AA81B981C1
:100B1000CE0FD11D0FB6F894DEBF0FBECDBFED01D5
:060B20000895F894FFCFD8
:100B2600060126014A015D018801B801EE010B02AA
:100B36004D616E61204D6568726165696E00256460
:020B46000000AD
:00000001FF
